{
  "contractName": "Manufacturer",
  "abi": [
    {
      "inputs": [],
      "stateMutability": "nonpayable",
      "type": "constructor"
    },
    {
      "inputs": [
        {
          "internalType": "uint256",
          "name": "",
          "type": "uint256"
        }
      ],
      "name": "all_products",
      "outputs": [
        {
          "internalType": "uint256",
          "name": "hash",
          "type": "uint256"
        },
        {
          "internalType": "address",
          "name": "_manufacturer",
          "type": "address"
        },
        {
          "internalType": "string",
          "name": "owners_list",
          "type": "string"
        },
        {
          "internalType": "address",
          "name": "current_owner",
          "type": "address"
        },
        {
          "internalType": "string",
          "name": "_desc",
          "type": "string"
        },
        {
          "internalType": "uint256",
          "name": "quantity",
          "type": "uint256"
        },
        {
          "internalType": "uint256",
          "name": "price",
          "type": "uint256"
        },
        {
          "internalType": "uint256",
          "name": "no_of_transfers",
          "type": "uint256"
        }
      ],
      "stateMutability": "view",
      "type": "function",
      "constant": true
    },
    {
      "inputs": [
        {
          "internalType": "address",
          "name": "",
          "type": "address"
        },
        {
          "internalType": "uint256",
          "name": "",
          "type": "uint256"
        }
      ],
      "name": "all_products_track",
      "outputs": [
        {
          "internalType": "uint256",
          "name": "hash",
          "type": "uint256"
        },
        {
          "internalType": "address",
          "name": "_manufacturer",
          "type": "address"
        },
        {
          "internalType": "string",
          "name": "owners_list",
          "type": "string"
        },
        {
          "internalType": "address",
          "name": "current_owner",
          "type": "address"
        },
        {
          "internalType": "string",
          "name": "_desc",
          "type": "string"
        },
        {
          "internalType": "uint256",
          "name": "quantity",
          "type": "uint256"
        },
        {
          "internalType": "uint256",
          "name": "price",
          "type": "uint256"
        },
        {
          "internalType": "uint256",
          "name": "no_of_transfers",
          "type": "uint256"
        }
      ],
      "stateMutability": "view",
      "type": "function",
      "constant": true
    },
    {
      "inputs": [
        {
          "internalType": "address",
          "name": "",
          "type": "address"
        }
      ],
      "name": "chain_products_track",
      "outputs": [
        {
          "internalType": "uint256",
          "name": "",
          "type": "uint256"
        }
      ],
      "stateMutability": "view",
      "type": "function",
      "constant": true
    },
    {
      "inputs": [],
      "name": "found",
      "outputs": [
        {
          "internalType": "uint256",
          "name": "",
          "type": "uint256"
        }
      ],
      "stateMutability": "view",
      "type": "function",
      "constant": true
    },
    {
      "inputs": [],
      "name": "index_tracker",
      "outputs": [
        {
          "internalType": "uint256",
          "name": "",
          "type": "uint256"
        }
      ],
      "stateMutability": "view",
      "type": "function",
      "constant": true
    },
    {
      "inputs": [],
      "name": "product_num",
      "outputs": [
        {
          "internalType": "uint256",
          "name": "",
          "type": "uint256"
        }
      ],
      "stateMutability": "view",
      "type": "function",
      "constant": true
    },
    {
      "inputs": [],
      "name": "test_track",
      "outputs": [
        {
          "internalType": "uint256",
          "name": "",
          "type": "uint256"
        }
      ],
      "stateMutability": "view",
      "type": "function",
      "constant": true
    },
    {
      "inputs": [
        {
          "internalType": "address",
          "name": "owner",
          "type": "address"
        },
        {
          "internalType": "uint256",
          "name": "hash",
          "type": "uint256"
        },
        {
          "internalType": "uint256",
          "name": "num",
          "type": "uint256"
        }
      ],
      "name": "give_owners",
      "outputs": [
        {
          "internalType": "address",
          "name": "",
          "type": "address"
        }
      ],
      "stateMutability": "nonpayable",
      "type": "function"
    },
    {
      "inputs": [
        {
          "internalType": "address",
          "name": "_manufacturerAddr",
          "type": "address"
        },
        {
          "internalType": "string",
          "name": "_description",
          "type": "string"
        },
        {
          "internalType": "string",
          "name": "owners_list",
          "type": "string"
        },
        {
          "internalType": "uint256",
          "name": "_quantity",
          "type": "uint256"
        },
        {
          "internalType": "uint256",
          "name": "cost",
          "type": "uint256"
        },
        {
          "internalType": "uint256",
          "name": "hash",
          "type": "uint256"
        }
      ],
      "name": "manufacturerCreatesProduct",
      "outputs": [],
      "stateMutability": "nonpayable",
      "type": "function"
    },
    {
      "inputs": [
        {
          "internalType": "address",
          "name": "_from",
          "type": "address"
        },
        {
          "internalType": "address",
          "name": "_to",
          "type": "address"
        },
        {
          "internalType": "uint256",
          "name": "i",
          "type": "uint256"
        },
        {
          "internalType": "address",
          "name": "_manufacturerAddr",
          "type": "address"
        },
        {
          "internalType": "address",
          "name": "current_owner",
          "type": "address"
        },
        {
          "internalType": "string",
          "name": "_description",
          "type": "string"
        },
        {
          "internalType": "uint256",
          "name": "_quantity",
          "type": "uint256"
        },
        {
          "internalType": "uint256",
          "name": "cost",
          "type": "uint256"
        },
        {
          "internalType": "uint256",
          "name": "hash",
          "type": "uint256"
        },
        {
          "internalType": "uint256",
          "name": "no_of_transfers",
          "type": "uint256"
        },
        {
          "internalType": "string",
          "name": "owners_list",
          "type": "string"
        },
        {
          "internalType": "string",
          "name": "prev_list",
          "type": "string"
        }
      ],
      "name": "manufacturerCreatesProduct2",
      "outputs": [],
      "stateMutability": "nonpayable",
      "type": "function"
    },
    {
      "inputs": [
        {
          "internalType": "address",
          "name": "_to",
          "type": "address"
        },
        {
          "internalType": "uint256",
          "name": "hash",
          "type": "uint256"
        }
      ],
      "name": "check_existence",
      "outputs": [
        {
          "internalType": "uint256",
          "name": "",
          "type": "uint256"
        }
      ],
      "stateMutability": "nonpayable",
      "type": "function"
    },
    {
      "inputs": [
        {
          "internalType": "address",
          "name": "_to",
          "type": "address"
        },
        {
          "internalType": "uint256",
          "name": "hash",
          "type": "uint256"
        }
      ],
      "name": "return_owners",
      "outputs": [
        {
          "internalType": "string",
          "name": "",
          "type": "string"
        }
      ],
      "stateMutability": "nonpayable",
      "type": "function"
    },
    {
      "inputs": [
        {
          "internalType": "address",
          "name": "_from",
          "type": "address"
        },
        {
          "internalType": "address",
          "name": "_to",
          "type": "address"
        },
        {
          "internalType": "uint256",
          "name": "i",
          "type": "uint256"
        },
        {
          "internalType": "uint256",
          "name": "j",
          "type": "uint256"
        },
        {
          "internalType": "uint256",
          "name": "quantity",
          "type": "uint256"
        },
        {
          "internalType": "string",
          "name": "owners_list",
          "type": "string"
        },
        {
          "internalType": "string",
          "name": "prev_list",
          "type": "string"
        }
      ],
      "name": "transfer_when_available",
      "outputs": [],
      "stateMutability": "nonpayable",
      "type": "function"
    },
    {
      "inputs": [
        {
          "internalType": "address",
          "name": "_from",
          "type": "address"
        },
        {
          "internalType": "address",
          "name": "_to",
          "type": "address"
        },
        {
          "internalType": "uint256",
          "name": "hash",
          "type": "uint256"
        },
        {
          "internalType": "uint256",
          "name": "quantity",
          "type": "uint256"
        }
      ],
      "name": "transferOwnership",
      "outputs": [
        {
          "internalType": "uint256",
          "name": "",
          "type": "uint256"
        }
      ],
      "stateMutability": "nonpayable",
      "type": "function"
    }
  ],
  "bytecode": "0x608060405260be6005556000600655600060075534801561001f57600080fd5b506000600481905550612359806100376000396000f3fe608060405234801561001057600080fd5b50600436106100e85760003560e01c80633d750b281161008c57806395bb77e31161006657806395bb77e314610afd5780639655465614610c92578063ac406d5f14610cf4578063e8c0e6c214610d12576100e8565b80633d750b28146107ab57806373d68b0d146107c9578063837e685214610861576100e8565b8063148c7d63116100c8578063148c7d63146104b95780631dfbf615146105115780631e27e818146106c65780632c1fdc3f146106e4576100e8565b8062230d94146100ed578062d26aba1461029d5780630397629514610329575b600080fd5b61029b600480360360e081101561010357600080fd5b81019080803573ffffffffffffffffffffffffffffffffffffffff169060200190929190803573ffffffffffffffffffffffffffffffffffffffff1690602001909291908035906020019092919080359060200190929190803590602001909291908035906020019064010000000081111561017e57600080fd5b82018360208201111561019057600080fd5b803590602001918460018302840111640100000000831117156101b257600080fd5b91908080601f016020809104026020016040519081016040528093929190818152602001838380828437600081840152601f19601f8201169050808301925050505050505091929192908035906020019064010000000081111561021557600080fd5b82018360208201111561022757600080fd5b8035906020019184600183028401116401000000008311171561024957600080fd5b91908080601f016020809104026020016040519081016040528093929190818152602001838380828437600081840152601f19601f820116905080830192505050505050509192919290505050610d30565b005b610313600480360360808110156102b357600080fd5b81019080803573ffffffffffffffffffffffffffffffffffffffff169060200190929190803573ffffffffffffffffffffffffffffffffffffffff1690602001909291908035906020019092919080359060200190929190505050611098565b6040518082815260200191505060405180910390f35b6104b7600480360360c081101561033f57600080fd5b81019080803573ffffffffffffffffffffffffffffffffffffffff1690602001909291908035906020019064010000000081111561037c57600080fd5b82018360208201111561038e57600080fd5b803590602001918460018302840111640100000000831117156103b057600080fd5b91908080601f016020809104026020016040519081016040528093929190818152602001838380828437600081840152601f19601f8201169050808301925050505050505091929192908035906020019064010000000081111561041357600080fd5b82018360208201111561042557600080fd5b8035906020019184600183028401116401000000008311171561044757600080fd5b91908080601f016020809104026020016040519081016040528093929190818152602001838380828437600081840152601f19601f820116905080830192505050505050509192919290803590602001909291908035906020019092919080359060200190929190505050611380565b005b6104fb600480360360208110156104cf57600080fd5b81019080803573ffffffffffffffffffffffffffffffffffffffff169060200190929190505050611603565b6040518082815260200191505060405180910390f35b61055d6004803603604081101561052757600080fd5b81019080803573ffffffffffffffffffffffffffffffffffffffff1690602001909291908035906020019092919050505061161b565b604051808981526020018873ffffffffffffffffffffffffffffffffffffffff1673ffffffffffffffffffffffffffffffffffffffff168152602001806020018773ffffffffffffffffffffffffffffffffffffffff1673ffffffffffffffffffffffffffffffffffffffff16815260200180602001868152602001858152602001848152602001838103835289818151815260200191508051906020019080838360005b8381101561061d578082015181840152602081019050610602565b50505050905090810190601f16801561064a5780820380516001836020036101000a031916815260200191505b50838103825287818151815260200191508051906020019080838360005b83811015610683578082015181840152602081019050610668565b50505050905090810190601f1680156106b05780820380516001836020036101000a031916815260200191505b509a505050505050505050505060405180910390f35b6106ce6117ed565b6040518082815260200191505060405180910390f35b610730600480360360408110156106fa57600080fd5b81019080803573ffffffffffffffffffffffffffffffffffffffff169060200190929190803590602001909291905050506117f3565b6040518080602001828103825283818151815260200191508051906020019080838360005b83811015610770578082015181840152602081019050610755565b50505050905090810190601f16801561079d5780820380516001836020036101000a031916815260200191505b509250505060405180910390f35b6107b36119ee565b6040518082815260200191505060405180910390f35b61081f600480360360608110156107df57600080fd5b81019080803573ffffffffffffffffffffffffffffffffffffffff16906020019092919080359060200190929190803590602001909291905050506119f4565b604051808273ffffffffffffffffffffffffffffffffffffffff1673ffffffffffffffffffffffffffffffffffffffff16815260200191505060405180910390f35b610afb600480360361018081101561087857600080fd5b81019080803573ffffffffffffffffffffffffffffffffffffffff169060200190929190803573ffffffffffffffffffffffffffffffffffffffff16906020019092919080359060200190929190803573ffffffffffffffffffffffffffffffffffffffff169060200190929190803573ffffffffffffffffffffffffffffffffffffffff1690602001909291908035906020019064010000000081111561091f57600080fd5b82018360208201111561093157600080fd5b8035906020019184600183028401116401000000008311171561095357600080fd5b91908080601f016020809104026020016040519081016040528093929190818152602001838380828437600081840152601f19601f82011690508083019250505050505050919291929080359060200190929190803590602001909291908035906020019092919080359060200190929190803590602001906401000000008111156109de57600080fd5b8201836020820111156109f057600080fd5b80359060200191846001830284011164010000000083111715610a1257600080fd5b91908080601f016020809104026020016040519081016040528093929190818152602001838380828437600081840152601f19601f82011690508083019250505050505050919291929080359060200190640100000000811115610a7557600080fd5b820183602082011115610a8757600080fd5b80359060200191846001830284011164010000000083111715610aa957600080fd5b91908080601f016020809104026020016040519081016040528093929190818152602001838380828437600081840152601f19601f820116905080830192505050505050509192919290505050611b55565b005b610b2960048036036020811015610b1357600080fd5b8101908080359060200190929190505050611f0a565b604051808981526020018873ffffffffffffffffffffffffffffffffffffffff1673ffffffffffffffffffffffffffffffffffffffff168152602001806020018773ffffffffffffffffffffffffffffffffffffffff1673ffffffffffffffffffffffffffffffffffffffff16815260200180602001868152602001858152602001848152602001838103835289818151815260200191508051906020019080838360005b83811015610be9578082015181840152602081019050610bce565b50505050905090810190601f168015610c165780820380516001836020036101000a031916815260200191505b50838103825287818151815260200191508051906020019080838360005b83811015610c4f578082015181840152602081019050610c34565b50505050905090810190601f168015610c7c5780820380516001836020036101000a031916815260200191505b509a505050505050505050505060405180910390f35b610cde60048036036040811015610ca857600080fd5b81019080803573ffffffffffffffffffffffffffffffffffffffff169060200190929190803590602001909291905050506120cf565b6040518082815260200191505060405180910390f35b610cfc6121a5565b6040518082815260200191505060405180910390f35b610d1a6121ab565b6040518082815260200191505060405180910390f35b82600360008973ffffffffffffffffffffffffffffffffffffffff1673ffffffffffffffffffffffffffffffffffffffff1681526020019081526020016000208681548110610d7b57fe5b90600052602060002090600902016006015403600360008973ffffffffffffffffffffffffffffffffffffffff1673ffffffffffffffffffffffffffffffffffffffff1681526020019081526020016000208681548110610dd857fe5b90600052602060002090600902016006018190555080600360008973ffffffffffffffffffffffffffffffffffffffff1673ffffffffffffffffffffffffffffffffffffffff1681526020019081526020016000208681548110610e3857fe5b90600052602060002090600902016003019080519060200190610e5c9291906121b1565b5082600360008873ffffffffffffffffffffffffffffffffffffffff1673ffffffffffffffffffffffffffffffffffffffff1681526020019081526020016000208581548110610ea857fe5b90600052602060002090600902016006015401600360008873ffffffffffffffffffffffffffffffffffffffff1673ffffffffffffffffffffffffffffffffffffffff1681526020019081526020016000208581548110610f0557fe5b90600052602060002090600902016006018190555081600360008873ffffffffffffffffffffffffffffffffffffffff1673ffffffffffffffffffffffffffffffffffffffff1681526020019081526020016000208581548110610f6557fe5b90600052602060002090600902016003019080519060200190610f899291906121b1565b5085600360008873ffffffffffffffffffffffffffffffffffffffff1673ffffffffffffffffffffffffffffffffffffffff1681526020019081526020016000208581548110610fd557fe5b906000526020600020906009020160040160006101000a81548173ffffffffffffffffffffffffffffffffffffffff021916908373ffffffffffffffffffffffffffffffffffffffff160217905550600360008773ffffffffffffffffffffffffffffffffffffffff1673ffffffffffffffffffffffffffffffffffffffff168152602001908152602001600020848154811061106e57fe5b90600052602060002090600902016008016000815480929190600101919050555050505050505050565b600080600090505b600260008773ffffffffffffffffffffffffffffffffffffffff1673ffffffffffffffffffffffffffffffffffffffff168152602001908152602001600020548110156113705783600360008873ffffffffffffffffffffffffffffffffffffffff1673ffffffffffffffffffffffffffffffffffffffff168152602001908152602001600020828154811061113257fe5b90600052602060002090600902016000015414156113635782600360008873ffffffffffffffffffffffffffffffffffffffff1673ffffffffffffffffffffffffffffffffffffffff168152602001908152602001600020828154811061119557fe5b90600052602060002090600902016006015410156111b957620aa289915050611378565b600060078190555082600360008873ffffffffffffffffffffffffffffffffffffffff1673ffffffffffffffffffffffffffffffffffffffff168152602001908152602001600020828154811061120c57fe5b90600052602060002090600902016006015403600360008873ffffffffffffffffffffffffffffffffffffffff1673ffffffffffffffffffffffffffffffffffffffff168152602001908152602001600020828154811061126957fe5b90600052602060002090600902016006018190555060008090505b600260008773ffffffffffffffffffffffffffffffffffffffff1673ffffffffffffffffffffffffffffffffffffffff1681526020019081526020016000205481101561134d5784600360008873ffffffffffffffffffffffffffffffffffffffff1673ffffffffffffffffffffffffffffffffffffffff168152602001908152602001600020828154811061131657fe5b90600052602060002090600902016000015414156113405760016007819055508092505050611378565b8080600101915050611284565b50600060075414156113625780915050611378565b5b80806001019150506110a0565b50620aa28a90505b949350505050565b600260008773ffffffffffffffffffffffffffffffffffffffff1673ffffffffffffffffffffffffffffffffffffffff16815260200190815260200160002060008154809291906001019190505550600360008773ffffffffffffffffffffffffffffffffffffffff1673ffffffffffffffffffffffffffffffffffffffff1681526020019081526020016000206040518061012001604052808381526020018873ffffffffffffffffffffffffffffffffffffffff168152602001600a67ffffffffffffffff8111801561145457600080fd5b506040519080825280602002602001820160405280156114835781602001602082028036833780820191505090505b5081526020018681526020018873ffffffffffffffffffffffffffffffffffffffff168152602001878152602001858152602001848152602001600081525090806001815401808255809150506001900390600052602060002090600902016000909190919091506000820151816000015560208201518160010160006101000a81548173ffffffffffffffffffffffffffffffffffffffff021916908373ffffffffffffffffffffffffffffffffffffffff1602179055506040820151816002019080519060200190611558929190612231565b5060608201518160030190805190602001906115759291906121b1565b5060808201518160040160006101000a81548173ffffffffffffffffffffffffffffffffffffffff021916908373ffffffffffffffffffffffffffffffffffffffff16021790555060a08201518160050190805190602001906115d99291906121b1565b5060c0820151816006015560e0820151816007015561010082015181600801555050505050505050565b60026020528060005260406000206000915090505481565b6003602052816000526040600020818154811061163457fe5b9060005260206000209060090201600091509150508060000154908060010160009054906101000a900473ffffffffffffffffffffffffffffffffffffffff1690806003018054600181600116156101000203166002900480601f01602080910402602001604051908101604052809291908181526020018280546001816001161561010002031660029004801561170d5780601f106116e25761010080835404028352916020019161170d565b820191906000526020600020905b8154815290600101906020018083116116f057829003601f168201915b5050505050908060040160009054906101000a900473ffffffffffffffffffffffffffffffffffffffff1690806005018054600181600116156101000203166002900480601f0160208091040260200160405190810160405280929190818152602001828054600181600116156101000203166002900480156117d15780601f106117a6576101008083540402835291602001916117d1565b820191906000526020600020905b8154815290600101906020018083116117b457829003601f168201915b5050505050908060060154908060070154908060080154905088565b60065481565b606060008090505b600260008573ffffffffffffffffffffffffffffffffffffffff1673ffffffffffffffffffffffffffffffffffffffff168152602001908152602001600020548110156119ae5782600360008673ffffffffffffffffffffffffffffffffffffffff1673ffffffffffffffffffffffffffffffffffffffff168152602001908152602001600020828154811061188d57fe5b90600052602060002090600902016000015414156119a157600360008573ffffffffffffffffffffffffffffffffffffffff1673ffffffffffffffffffffffffffffffffffffffff16815260200190815260200160002081815481106118ef57fe5b90600052602060002090600902016003018054600181600116156101000203166002900480601f0160208091040260200160405190810160405280929190818152602001828054600181600116156101000203166002900480156119945780601f1061196957610100808354040283529160200191611994565b820191906000526020600020905b81548152906001019060200180831161197757829003601f168201915b50505050509150506119e8565b80806001019150506117fb565b506040518060400160405280600681526020017f363936393639000000000000000000000000000000000000000000000000000081525090505b92915050565b60075481565b600080600090505b600260008673ffffffffffffffffffffffffffffffffffffffff1673ffffffffffffffffffffffffffffffffffffffff16815260200190815260200160002054811015611b4c5783600360008773ffffffffffffffffffffffffffffffffffffffff1673ffffffffffffffffffffffffffffffffffffffff1681526020019081526020016000208281548110611a8e57fe5b9060005260206000209060090201600001541415611b3f57600360008673ffffffffffffffffffffffffffffffffffffffff1673ffffffffffffffffffffffffffffffffffffffff1681526020019081526020016000208181548110611af057fe5b90600052602060002090600902016002018381548110611b0c57fe5b9060005260206000200160009054906101000a900473ffffffffffffffffffffffffffffffffffffffff16915050611b4e565b80806001019150506119fc565b505b9392505050565b85600360008e73ffffffffffffffffffffffffffffffffffffffff1673ffffffffffffffffffffffffffffffffffffffff1681526020019081526020016000208b81548110611ba057fe5b90600052602060002090600902016006015403600360008e73ffffffffffffffffffffffffffffffffffffffff1673ffffffffffffffffffffffffffffffffffffffff1681526020019081526020016000208b81548110611bfd57fe5b90600052602060002090600902016006018190555080600360008e73ffffffffffffffffffffffffffffffffffffffff1673ffffffffffffffffffffffffffffffffffffffff1681526020019081526020016000208b81548110611c5d57fe5b90600052602060002090600902016003019080519060200190611c819291906121b1565b50600260008c73ffffffffffffffffffffffffffffffffffffffff1673ffffffffffffffffffffffffffffffffffffffff16815260200190815260200160002060008154809291906001019190505550600360008c73ffffffffffffffffffffffffffffffffffffffff1673ffffffffffffffffffffffffffffffffffffffff1681526020019081526020016000206040518061012001604052808681526020018b73ffffffffffffffffffffffffffffffffffffffff168152602001600a67ffffffffffffffff81118015611d5657600080fd5b50604051908082528060200260200182016040528015611d855781602001602082028036833780820191505090505b5081526020018481526020018a73ffffffffffffffffffffffffffffffffffffffff1681526020018981526020018881526020018781526020018581525090806001815401808255809150506001900390600052602060002090600902016000909190919091506000820151816000015560208201518160010160006101000a81548173ffffffffffffffffffffffffffffffffffffffff021916908373ffffffffffffffffffffffffffffffffffffffff1602179055506040820151816002019080519060200190611e59929190612231565b506060820151816003019080519060200190611e769291906121b1565b5060808201518160040160006101000a81548173ffffffffffffffffffffffffffffffffffffffff021916908373ffffffffffffffffffffffffffffffffffffffff16021790555060a0820151816005019080519060200190611eda9291906121b1565b5060c0820151816006015560e0820151816007015561010082015181600801555050505050505050505050505050565b60018181548110611f1757fe5b90600052602060002090600902016000915090508060000154908060010160009054906101000a900473ffffffffffffffffffffffffffffffffffffffff1690806003018054600181600116156101000203166002900480601f016020809104026020016040519081016040528092919081815260200182805460018160011615610100020316600290048015611fef5780601f10611fc457610100808354040283529160200191611fef565b820191906000526020600020905b815481529060010190602001808311611fd257829003601f168201915b5050505050908060040160009054906101000a900473ffffffffffffffffffffffffffffffffffffffff1690806005018054600181600116156101000203166002900480601f0160208091040260200160405190810160405280929190818152602001828054600181600116156101000203166002900480156120b35780601f10612088576101008083540402835291602001916120b3565b820191906000526020600020905b81548152906001019060200180831161209657829003601f168201915b5050505050908060060154908060070154908060080154905088565b600080600090505b600260008573ffffffffffffffffffffffffffffffffffffffff1673ffffffffffffffffffffffffffffffffffffffff168152602001908152602001600020548110156121975782600360008673ffffffffffffffffffffffffffffffffffffffff1673ffffffffffffffffffffffffffffffffffffffff168152602001908152602001600020828154811061216957fe5b906000526020600020906009020160000154141561218a578091505061219f565b80806001019150506120d7565b50620aa28990505b92915050565b60055481565b60045481565b828054600181600116156101000203166002900490600052602060002090601f016020900481019282601f106121f257805160ff1916838001178555612220565b82800160010185558215612220579182015b8281111561221f578251825591602001919060010190612204565b5b50905061222d91906122bb565b5090565b8280548282559060005260206000209081019282156122aa579160200282015b828111156122a95782518260006101000a81548173ffffffffffffffffffffffffffffffffffffffff021916908373ffffffffffffffffffffffffffffffffffffffff16021790555091602001919060010190612251565b5b5090506122b791906122e0565b5090565b6122dd91905b808211156122d95760008160009055506001016122c1565b5090565b90565b61232091905b8082111561231c57600081816101000a81549073ffffffffffffffffffffffffffffffffffffffff0219169055506001016122e6565b5090565b9056fea26469706673582212203dec9ad086ccabcfb014706466772265002c56c45f37e350cd5aa8f8c0a00b2d64736f6c63430006060033",
  "immutableReferences": {},
  "source": "pragma solidity >=0.4.21 <0.7.0;\n\ncontract Manufacturer {\n    address creator;\n    struct product {\n        uint256 hash;\n        address _manufacturer;\n        address[] owners;\n        string owners_list;\n        address current_owner;\n        string _desc;\n        uint256 quantity;\n        uint256 price;\n        uint256 no_of_transfers;\n    }\n    product[] public all_products; // Stores all the products\n    mapping(address => uint256) public chain_products_track; // stores the length of all_product_track\n    mapping(address => product[]) public all_products_track; // Stores the products a address have\n    uint256 public product_num;\n    uint256 public test_track = 190;\n    uint256 public index_tracker = 0;\n    uint256 public found = 0;\n\n    constructor() public {\n        product_num = 0;\n    }\n\n    function give_owners(\n        address owner,\n        uint256 hash,\n        uint256 num\n    ) public returns (address) {\n        for (uint256 i = 0; i < chain_products_track[owner]; i++) {\n            if (all_products_track[owner][i].hash == hash) {\n                return all_products_track[owner][i].owners[num];\n            }\n        }\n    }\n\n    function manufacturerCreatesProduct(\n        address _manufacturerAddr,\n        string memory _description,\n        string memory owners_list,\n        uint256 _quantity,\n        uint256 cost,\n        uint256 hash\n    ) public {\n        // require(_manufacturerAddr == msg.sender);\n        // product memory Product1 = product(\n        //     hash,\n        //     _manufacturerAddr,\n        //     new address[](10),\n        //     _manufacturerAddr,\n        //     _description,\n        //     _quantity,\n        //     cost,\n        //     0\n        // );\n        chain_products_track[_manufacturerAddr]++;\n        all_products_track[_manufacturerAddr].push(\n            product(\n                hash,\n                _manufacturerAddr,\n                new address[](10),\n                owners_list,\n                _manufacturerAddr,\n                _description,\n                _quantity,\n                cost,\n                0\n            )\n        );\n        //all_products.push(Product1);\n    }\n\n    function manufacturerCreatesProduct2(\n        address _from,\n        address _to,\n        uint256 i,\n        address _manufacturerAddr,\n        address current_owner,\n        string memory _description,\n        uint256 _quantity,\n        uint256 cost,\n        uint256 hash,\n        uint256 no_of_transfers,\n        string memory owners_list,\n        string memory prev_list\n    ) public {\n        // require(_manufacturerAddr == msg.sender);\n        all_products_track[_from][i].quantity =\n            all_products_track[_from][i].quantity -\n            _quantity;\n        all_products_track[_from][i].owners_list = prev_list;           \n        //product memory Product1 = product(hash, _manufacturerAddr ,new address[](10),_manufacturerAddr, _description , _quantity ,cost , 0);\n        chain_products_track[_to]++;\n        all_products_track[_to].push(\n            product(\n                hash,\n                _manufacturerAddr,\n                new address[](10),\n                owners_list,\n                current_owner,\n                _description,\n                _quantity,\n                cost,\n                no_of_transfers\n            )\n        );\n        //all_products.push(Product1);\n    }\n\n    function check_existence(address _to, uint hash) public returns(uint) {\n        for (uint256 j = 0; j < chain_products_track[_to]; j++) {\n            if (all_products_track[_to][j].hash == hash) {\n                return j;\n            }\n        }\n        return 696969;\n    }\n    function return_owners(address _to, uint hash) public returns(string memory) {\n        for (uint256 j = 0; j < chain_products_track[_to]; j++) {\n            if (all_products_track[_to][j].hash == hash) {\n                return all_products_track[_to][j].owners_list;\n            }\n        }\n        return \"696969\";\n    }\n    function transfer_when_available(address _from , address _to , uint i , uint j , uint quantity , string memory owners_list , string memory prev_list) public {\n                    // Update the quantity of product\n        all_products_track[_from][i].quantity = all_products_track[_from][i].quantity - quantity;  \n        all_products_track[_from][i].owners_list = prev_list;       \n        all_products_track[_to][j].quantity = all_products_track[_to][j].quantity + quantity;\n        all_products_track[_to][j].owners_list = owners_list;\n        all_products_track[_to][j].current_owner = _to;\n        all_products_track[_to][j].no_of_transfers ++;        \n    }\n    function transferOwnership(\n        address _from,\n        address _to,\n        uint256 hash,\n        uint256 quantity\n    ) public returns (uint256) {\n        // require(_from == msg.sender);\n\n        for (uint256 i = 0; i < chain_products_track[_from]; i++) {\n            if (all_products_track[_from][i].hash == hash) {\n                // If total number of product is less than number of products to be transferred\n                if (all_products_track[_from][i].quantity < quantity) {\n                    return 696969;\n                } else {\n                    // Will tell if the _to address already have this product\n\n                    found = 0;\n\n                    // Update the quantity of product\n                    all_products_track[_from][i].quantity =\n                        all_products_track[_from][i].quantity -\n                        quantity;\n\n                    for (uint256 j = 0; j < chain_products_track[_to]; j++) {\n                        if (all_products_track[_to][j].hash == hash) {\n                            found = 1;\n                            return j;\n                            // all_products_track[_to][j].quantity = all_products_track[_to][j].quantity + quantity;\n                            // all_products_track[_to][j].current_owner = _to;\n                            // all_products_track[_to][j].no_of_transfers ++;\n                        }\n                    }\n                    if (found == 0) {\n                        return i;\n                        // return \"not found\";\n                        // address x = _to ;\n\n                        //product memory Product1 = product(hash, all_products_track[_from][i]._manufacturer ,all_products_track[_from][i].owners,all_products_track[_from][i].current_owner, all_products_track[_from][i]._desc , all_products_track[_from][i].quantity ,all_products_track[_from][i].price , all_products_track[_from][i].no_of_transfers);\n                        //all_products_track[_from].push(Product1);\n                        // // all_products_track[_to][0] = Product1 ;\n                        // //manufacturerCreatesProduct(_to, \"chal jaa bsdk\", quantity, 10, hash);\n                        // //all_products_track[_to].push(product(hash, all_products_track[_from][i]._manufacturer ,new address[](10),all_products_track[_from][i].current_owner, all_products_track[_from][i]._desc , all_products_track[_from][i].quantity ,all_products_track[_from][i].price , all_products_track[_from][i].no_of_transfers));\n                        // // all_products_track[_to].push(all_products_track[_from][i]);\n                        //  //all_products_track[_to].push(product(all_products_track[_from][i].hash, all_products_track[_from][i]._manufacturer ,all_products_track[_from][i].owners,all_products_track[_from][i].current_owner, all_products_track[_from][i]._desc , all_products_track[_from][i].quantity ,all_products_track[_from][i].price , all_products_track[_from][i].no_of_transfers));\n                        //  //all_products_track[_to].push(product(hash, all_products_track[_from][i]._manufacturer ,all_products_track[_from][i].owners,_from, \"hola\" , 4 ,0 , 0));\n                        // // chain_products_track[_to]++;\n                        // // all_products_track[_to][chain_products_track[_to]-1].quantity =  quantity;\n                        // // all_products_track[_to][chain_products_track[_to]-1].owners.push(_to);\n                        // // all_products_track[_to][chain_products_track[_to]-1].current_owner = _to;\n                        // // all_products_track[_to][chain_products_track[_to]-1].no_of_transfers ++;\n                    }\n                }\n            }\n        }\n        return 696970;\n    }\n}\n",
  "sourcePath": "/Users/vidhipareek/Downloads/ethereum-supply-chain-dapp-main/contracts/Manufacturer.sol",
  "compiler": {
    "name": "solc",
    "version": "0.6.6+commit.6c089d02.Emscripten.clang"
  },
  "schemaVersion": "3.4.7",
  "updatedAt": "2022-04-15T22:05:05.410Z",
  "networkType": "ethereum",
  "devdoc": {
    "methods": {}
  },
  "userdoc": {
    "methods": {}
  }
}