{
  "contractName": "Manufacturer",
  "abi": [
    {
      "inputs": [],
      "stateMutability": "nonpayable",
      "type": "constructor"
    },
    {
      "inputs": [
        {
          "internalType": "uint256",
          "name": "",
          "type": "uint256"
        }
      ],
      "name": "all_products",
      "outputs": [
        {
          "internalType": "uint256",
          "name": "hash",
          "type": "uint256"
        },
        {
          "internalType": "address",
          "name": "_manufacturer",
          "type": "address"
        },
        {
          "internalType": "address",
          "name": "current_owner",
          "type": "address"
        },
        {
          "internalType": "string",
          "name": "_desc",
          "type": "string"
        },
        {
          "internalType": "uint256",
          "name": "quantity",
          "type": "uint256"
        },
        {
          "internalType": "uint256",
          "name": "price",
          "type": "uint256"
        },
        {
          "internalType": "uint256",
          "name": "no_of_transfers",
          "type": "uint256"
        }
      ],
      "stateMutability": "view",
      "type": "function",
      "constant": true
    },
    {
      "inputs": [
        {
          "internalType": "address",
          "name": "",
          "type": "address"
        },
        {
          "internalType": "uint256",
          "name": "",
          "type": "uint256"
        }
      ],
      "name": "all_products_track",
      "outputs": [
        {
          "internalType": "uint256",
          "name": "hash",
          "type": "uint256"
        },
        {
          "internalType": "address",
          "name": "_manufacturer",
          "type": "address"
        },
        {
          "internalType": "address",
          "name": "current_owner",
          "type": "address"
        },
        {
          "internalType": "string",
          "name": "_desc",
          "type": "string"
        },
        {
          "internalType": "uint256",
          "name": "quantity",
          "type": "uint256"
        },
        {
          "internalType": "uint256",
          "name": "price",
          "type": "uint256"
        },
        {
          "internalType": "uint256",
          "name": "no_of_transfers",
          "type": "uint256"
        }
      ],
      "stateMutability": "view",
      "type": "function",
      "constant": true
    },
    {
      "inputs": [
        {
          "internalType": "address",
          "name": "",
          "type": "address"
        }
      ],
      "name": "chain_products_track",
      "outputs": [
        {
          "internalType": "uint256",
          "name": "",
          "type": "uint256"
        }
      ],
      "stateMutability": "view",
      "type": "function",
      "constant": true
    },
    {
      "inputs": [],
      "name": "found",
      "outputs": [
        {
          "internalType": "uint256",
          "name": "",
          "type": "uint256"
        }
      ],
      "stateMutability": "view",
      "type": "function",
      "constant": true
    },
    {
      "inputs": [],
      "name": "index_tracker",
      "outputs": [
        {
          "internalType": "uint256",
          "name": "",
          "type": "uint256"
        }
      ],
      "stateMutability": "view",
      "type": "function",
      "constant": true
    },
    {
      "inputs": [],
      "name": "product_num",
      "outputs": [
        {
          "internalType": "uint256",
          "name": "",
          "type": "uint256"
        }
      ],
      "stateMutability": "view",
      "type": "function",
      "constant": true
    },
    {
      "inputs": [],
      "name": "test_track",
      "outputs": [
        {
          "internalType": "uint256",
          "name": "",
          "type": "uint256"
        }
      ],
      "stateMutability": "view",
      "type": "function",
      "constant": true
    },
    {
      "inputs": [
        {
          "internalType": "address",
          "name": "owner",
          "type": "address"
        },
        {
          "internalType": "uint256",
          "name": "hash",
          "type": "uint256"
        },
        {
          "internalType": "uint256",
          "name": "num",
          "type": "uint256"
        }
      ],
      "name": "give_owners",
      "outputs": [
        {
          "internalType": "address",
          "name": "",
          "type": "address"
        }
      ],
      "stateMutability": "nonpayable",
      "type": "function"
    },
    {
      "inputs": [
        {
          "internalType": "address",
          "name": "_manufacturerAddr",
          "type": "address"
        },
        {
          "internalType": "string",
          "name": "_description",
          "type": "string"
        },
        {
          "internalType": "uint256",
          "name": "_quantity",
          "type": "uint256"
        },
        {
          "internalType": "uint256",
          "name": "cost",
          "type": "uint256"
        },
        {
          "internalType": "uint256",
          "name": "hash",
          "type": "uint256"
        }
      ],
      "name": "manufacturerCreatesProduct",
      "outputs": [],
      "stateMutability": "nonpayable",
      "type": "function"
    },
    {
      "inputs": [
        {
          "internalType": "address",
          "name": "_from",
          "type": "address"
        },
        {
          "internalType": "address",
          "name": "_to",
          "type": "address"
        },
        {
          "internalType": "uint256",
          "name": "i",
          "type": "uint256"
        },
        {
          "internalType": "address",
          "name": "_manufacturerAddr",
          "type": "address"
        },
        {
          "internalType": "address",
          "name": "current_owner",
          "type": "address"
        },
        {
          "internalType": "string",
          "name": "_description",
          "type": "string"
        },
        {
          "internalType": "uint256",
          "name": "_quantity",
          "type": "uint256"
        },
        {
          "internalType": "uint256",
          "name": "cost",
          "type": "uint256"
        },
        {
          "internalType": "uint256",
          "name": "hash",
          "type": "uint256"
        },
        {
          "internalType": "uint256",
          "name": "no_of_transfers",
          "type": "uint256"
        }
      ],
      "name": "manufacturerCreatesProduct2",
      "outputs": [],
      "stateMutability": "nonpayable",
      "type": "function"
    },
    {
      "inputs": [
        {
          "internalType": "address",
          "name": "_from",
          "type": "address"
        },
        {
          "internalType": "address",
          "name": "_to",
          "type": "address"
        },
        {
          "internalType": "uint256",
          "name": "hash",
          "type": "uint256"
        },
        {
          "internalType": "uint256",
          "name": "quantity",
          "type": "uint256"
        }
      ],
      "name": "transferOwnership",
      "outputs": [
        {
          "internalType": "uint256",
          "name": "",
          "type": "uint256"
        }
      ],
      "stateMutability": "nonpayable",
      "type": "function"
    }
  ],
  "bytecode": "0x608060405260a06005556000600655600060075534801561001f57600080fd5b5060006004819055506117b3806100376000396000f3fe608060405234801561001057600080fd5b50600436106100a85760003560e01c80633d750b28116100715780633d750b281461046657806373d68b0d14610484578063776d5ef91461051c57806395bb77e314610615578063ac406d5f1461073e578063e8c0e6c21461075c576100a8565b8062d26aba146100ad578063053720ee14610139578063148c7d63146102a75780631dfbf615146102ff5780631e27e81814610448575b600080fd5b610123600480360360808110156100c357600080fd5b81019080803573ffffffffffffffffffffffffffffffffffffffff169060200190929190803573ffffffffffffffffffffffffffffffffffffffff169060200190929190803590602001909291908035906020019092919050505061077a565b6040518082815260200191505060405180910390f35b6102a5600480360361014081101561015057600080fd5b81019080803573ffffffffffffffffffffffffffffffffffffffff169060200190929190803573ffffffffffffffffffffffffffffffffffffffff16906020019092919080359060200190929190803573ffffffffffffffffffffffffffffffffffffffff169060200190929190803573ffffffffffffffffffffffffffffffffffffffff169060200190929190803590602001906401000000008111156101f757600080fd5b82018360208201111561020957600080fd5b8035906020019184600183028401116401000000008311171561022b57600080fd5b91908080601f016020809104026020016040519081016040528093929190818152602001838380828437600081840152601f19601f82011690508083019250505050505050919291929080359060200190929190803590602001909291908035906020019092919080359060200190929190505050610a5a565b005b6102e9600480360360208110156102bd57600080fd5b81019080803573ffffffffffffffffffffffffffffffffffffffff169060200190929190505050610d79565b6040518082815260200191505060405180910390f35b61034b6004803603604081101561031557600080fd5b81019080803573ffffffffffffffffffffffffffffffffffffffff16906020019092919080359060200190929190505050610d91565b604051808881526020018773ffffffffffffffffffffffffffffffffffffffff1673ffffffffffffffffffffffffffffffffffffffff1681526020018673ffffffffffffffffffffffffffffffffffffffff1673ffffffffffffffffffffffffffffffffffffffff16815260200180602001858152602001848152602001838152602001828103825286818151815260200191508051906020019080838360005b838110156104075780820151818401526020810190506103ec565b50505050905090810190601f1680156104345780820380516001836020036101000a031916815260200191505b509850505050505050505060405180910390f35b610450610ec5565b6040518082815260200191505060405180910390f35b61046e610ecb565b6040518082815260200191505060405180910390f35b6104da6004803603606081101561049a57600080fd5b81019080803573ffffffffffffffffffffffffffffffffffffffff1690602001909291908035906020019092919080359060200190929190505050610ed1565b604051808273ffffffffffffffffffffffffffffffffffffffff1673ffffffffffffffffffffffffffffffffffffffff16815260200191505060405180910390f35b610613600480360360a081101561053257600080fd5b81019080803573ffffffffffffffffffffffffffffffffffffffff1690602001909291908035906020019064010000000081111561056f57600080fd5b82018360208201111561058157600080fd5b803590602001918460018302840111640100000000831117156105a357600080fd5b91908080601f016020809104026020016040519081016040528093929190818152602001838380828437600081840152601f19601f820116905080830192505050505050509192919290803590602001909291908035906020019092919080359060200190929190505050611032565b005b6106416004803603602081101561062b57600080fd5b8101908080359060200190929190505050611467565b604051808881526020018773ffffffffffffffffffffffffffffffffffffffff1673ffffffffffffffffffffffffffffffffffffffff1681526020018673ffffffffffffffffffffffffffffffffffffffff1673ffffffffffffffffffffffffffffffffffffffff16815260200180602001858152602001848152602001838152602001828103825286818151815260200191508051906020019080838360005b838110156106fd5780820151818401526020810190506106e2565b50505050905090810190601f16801561072a5780820380516001836020036101000a031916815260200191505b509850505050505050505060405180910390f35b61074661158e565b6040518082815260200191505060405180910390f35b610764611594565b6040518082815260200191505060405180910390f35b600080600090505b600260008773ffffffffffffffffffffffffffffffffffffffff1673ffffffffffffffffffffffffffffffffffffffff16815260200190815260200160002054811015610a4a5783600360008873ffffffffffffffffffffffffffffffffffffffff1673ffffffffffffffffffffffffffffffffffffffff168152602001908152602001600020828154811061081457fe5b9060005260206000209060080201600001541415610a3d5782600360008873ffffffffffffffffffffffffffffffffffffffff1673ffffffffffffffffffffffffffffffffffffffff168152602001908152602001600020828154811061087757fe5b906000526020600020906008020160050154101561089b57620aa289915050610a52565b600060078190555082600360008873ffffffffffffffffffffffffffffffffffffffff1673ffffffffffffffffffffffffffffffffffffffff16815260200190815260200160002082815481106108ee57fe5b90600052602060002090600802016005015403600360008873ffffffffffffffffffffffffffffffffffffffff1673ffffffffffffffffffffffffffffffffffffffff168152602001908152602001600020828154811061094b57fe5b90600052602060002090600802016005018190555060008090505b600260008773ffffffffffffffffffffffffffffffffffffffff1673ffffffffffffffffffffffffffffffffffffffff16815260200190815260200160002054811015610a275784600360008873ffffffffffffffffffffffffffffffffffffffff1673ffffffffffffffffffffffffffffffffffffffff16815260200190815260200160002082815481106109f857fe5b9060005260206000209060080201600001541415610a1a578092505050610a52565b8080600101915050610966565b5060006007541415610a3c5780915050610a52565b5b8080600101915050610782565b50620aa28a90505b949350505050565b83600360008c73ffffffffffffffffffffffffffffffffffffffff1673ffffffffffffffffffffffffffffffffffffffff1681526020019081526020016000208981548110610aa557fe5b90600052602060002090600802016005015403600360008c73ffffffffffffffffffffffffffffffffffffffff1673ffffffffffffffffffffffffffffffffffffffff1681526020019081526020016000208981548110610b0257fe5b906000526020600020906008020160050181905550600260008a73ffffffffffffffffffffffffffffffffffffffff1673ffffffffffffffffffffffffffffffffffffffff16815260200190815260200160002060008154809291906001019190505550600360008a73ffffffffffffffffffffffffffffffffffffffff1673ffffffffffffffffffffffffffffffffffffffff1681526020019081526020016000206040518061010001604052808481526020018973ffffffffffffffffffffffffffffffffffffffff168152602001600a67ffffffffffffffff81118015610beb57600080fd5b50604051908082528060200260200182016040528015610c1a5781602001602082028036833780820191505090505b5081526020018873ffffffffffffffffffffffffffffffffffffffff1681526020018781526020018681526020018581526020018381525090806001815401808255809150506001900390600052602060002090600802016000909190919091506000820151816000015560208201518160010160006101000a81548173ffffffffffffffffffffffffffffffffffffffff021916908373ffffffffffffffffffffffffffffffffffffffff1602179055506040820151816002019080519060200190610ce892919061159a565b5060608201518160030160006101000a81548173ffffffffffffffffffffffffffffffffffffffff021916908373ffffffffffffffffffffffffffffffffffffffff1602179055506080820151816004019080519060200190610d4c929190611624565b5060a0820151816005015560c0820151816006015560e08201518160070155505050505050505050505050565b60026020528060005260406000206000915090505481565b60036020528160005260406000208181548110610daa57fe5b9060005260206000209060080201600091509150508060000154908060010160009054906101000a900473ffffffffffffffffffffffffffffffffffffffff16908060030160009054906101000a900473ffffffffffffffffffffffffffffffffffffffff1690806004018054600181600116156101000203166002900480601f016020809104026020016040519081016040528092919081815260200182805460018160011615610100020316600290048015610ea95780601f10610e7e57610100808354040283529160200191610ea9565b820191906000526020600020905b815481529060010190602001808311610e8c57829003601f168201915b5050505050908060050154908060060154908060070154905087565b60065481565b60075481565b600080600090505b600260008673ffffffffffffffffffffffffffffffffffffffff1673ffffffffffffffffffffffffffffffffffffffff168152602001908152602001600020548110156110295783600360008773ffffffffffffffffffffffffffffffffffffffff1673ffffffffffffffffffffffffffffffffffffffff1681526020019081526020016000208281548110610f6b57fe5b906000526020600020906008020160000154141561101c57600360008673ffffffffffffffffffffffffffffffffffffffff1673ffffffffffffffffffffffffffffffffffffffff1681526020019081526020016000208181548110610fcd57fe5b90600052602060002090600802016002018381548110610fe957fe5b9060005260206000200160009054906101000a900473ffffffffffffffffffffffffffffffffffffffff1691505061102b565b8080600101915050610ed9565b505b9392505050565b61103a6116a4565b6040518061010001604052808381526020018773ffffffffffffffffffffffffffffffffffffffff168152602001600a67ffffffffffffffff8111801561108057600080fd5b506040519080825280602002602001820160405280156110af5781602001602082028036833780820191505090505b5081526020018773ffffffffffffffffffffffffffffffffffffffff16815260200186815260200185815260200184815260200160008152509050600260008773ffffffffffffffffffffffffffffffffffffffff1673ffffffffffffffffffffffffffffffffffffffff16815260200190815260200160002060008154809291906001019190505550600360008773ffffffffffffffffffffffffffffffffffffffff1673ffffffffffffffffffffffffffffffffffffffff1681526020019081526020016000206040518061010001604052808481526020018873ffffffffffffffffffffffffffffffffffffffff168152602001600a67ffffffffffffffff811180156111be57600080fd5b506040519080825280602002602001820160405280156111ed5781602001602082028036833780820191505090505b5081526020018873ffffffffffffffffffffffffffffffffffffffff168152602001878152602001868152602001858152602001600081525090806001815401808255809150506001900390600052602060002090600802016000909190919091506000820151816000015560208201518160010160006101000a81548173ffffffffffffffffffffffffffffffffffffffff021916908373ffffffffffffffffffffffffffffffffffffffff16021790555060408201518160020190805190602001906112bc92919061159a565b5060608201518160030160006101000a81548173ffffffffffffffffffffffffffffffffffffffff021916908373ffffffffffffffffffffffffffffffffffffffff1602179055506080820151816004019080519060200190611320929190611624565b5060a0820151816005015560c0820151816006015560e08201518160070155505060018190806001815401808255809150506001900390600052602060002090600802016000909190919091506000820151816000015560208201518160010160006101000a81548173ffffffffffffffffffffffffffffffffffffffff021916908373ffffffffffffffffffffffffffffffffffffffff16021790555060408201518160020190805190602001906113da92919061159a565b5060608201518160030160006101000a81548173ffffffffffffffffffffffffffffffffffffffff021916908373ffffffffffffffffffffffffffffffffffffffff160217905550608082015181600401908051906020019061143e929190611624565b5060a0820151816005015560c0820151816006015560e082015181600701555050505050505050565b6001818154811061147457fe5b90600052602060002090600802016000915090508060000154908060010160009054906101000a900473ffffffffffffffffffffffffffffffffffffffff16908060030160009054906101000a900473ffffffffffffffffffffffffffffffffffffffff1690806004018054600181600116156101000203166002900480601f0160208091040260200160405190810160405280929190818152602001828054600181600116156101000203166002900480156115725780601f1061154757610100808354040283529160200191611572565b820191906000526020600020905b81548152906001019060200180831161155557829003601f168201915b5050505050908060050154908060060154908060070154905087565b60055481565b60045481565b828054828255906000526020600020908101928215611613579160200282015b828111156116125782518260006101000a81548173ffffffffffffffffffffffffffffffffffffffff021916908373ffffffffffffffffffffffffffffffffffffffff160217905550916020019190600101906115ba565b5b5090506116209190611715565b5090565b828054600181600116156101000203166002900490600052602060002090601f016020900481019282601f1061166557805160ff1916838001178555611693565b82800160010185558215611693579182015b82811115611692578251825591602001919060010190611677565b5b5090506116a09190611758565b5090565b60405180610100016040528060008152602001600073ffffffffffffffffffffffffffffffffffffffff16815260200160608152602001600073ffffffffffffffffffffffffffffffffffffffff168152602001606081526020016000815260200160008152602001600081525090565b61175591905b8082111561175157600081816101000a81549073ffffffffffffffffffffffffffffffffffffffff02191690555060010161171b565b5090565b90565b61177a91905b8082111561177657600081600090555060010161175e565b5090565b9056fea264697066735822122092bc7224075766b227b675d2f29f3c5d68086f17a68e6259de51e83ab5f026c064736f6c63430006060033",
  "immutableReferences": {},
  "source": "pragma solidity >=0.4.21 <0.7.0;\ncontract Manufacturer {\n    address creator;\n    struct product\n    {\n        uint hash;\n        address _manufacturer;\n        address[] owners;\n        address current_owner;\n        string _desc;\n        uint quantity;\n        uint price;\n        uint no_of_transfers;\n    }\n    product[] public all_products; // Stores all the products \n    mapping (address => uint) public chain_products_track; // stores the length of all_product_track\n    mapping (address => product[]) public all_products_track; // Stores the products a address have \n    uint public product_num;\n    uint public test_track = 160;\n    uint public index_tracker = 0;\n    uint public found = 0;\n    constructor() public \n    {\n        product_num = 0;\n    }\n    function give_owners(address owner , uint hash , uint num) public returns (address)\n    {\n        for (uint i=0 ; i<chain_products_track[owner];i++)\n        {\n            if(all_products_track[owner][i].hash == hash)\n            {\n                return all_products_track[owner][i].owners[num];\n            }\n        }\n    }\n\n    function manufacturerCreatesProduct\n    (\n        address _manufacturerAddr,\n        string memory _description,\n        uint _quantity,\n        uint cost,\n        uint hash\n        ) public {\n        // require(_manufacturerAddr == msg.sender);\n        product memory Product1 = product(hash, _manufacturerAddr ,new address[](10),_manufacturerAddr, _description , _quantity ,cost , 0);\n        chain_products_track[_manufacturerAddr]++;\n        all_products_track[_manufacturerAddr].push(product(hash, _manufacturerAddr ,new address[](10),_manufacturerAddr, _description , _quantity ,cost , 0));\n        all_products.push(Product1);     \n    }\n\n    function manufacturerCreatesProduct2\n    (\n        address _from,\n        address _to,\n        uint i,\n        address _manufacturerAddr,\n        address current_owner,\n        string memory _description,\n        uint _quantity,\n        uint cost,\n        uint hash,\n        uint no_of_transfers\n        ) public {\n        // require(_manufacturerAddr == msg.sender);\n        all_products_track[_from][i].quantity = all_products_track[_from][i].quantity - _quantity;\n        //product memory Product1 = product(hash, _manufacturerAddr ,new address[](10),_manufacturerAddr, _description , _quantity ,cost , 0);\n        chain_products_track[_to]++;\n        all_products_track[_to].push(product(hash, _manufacturerAddr ,new address[](10),current_owner, _description , _quantity ,cost , no_of_transfers));\n        //all_products.push(Product1);     \n    }\n\n    function transferOwnership\n    (\n        address _from,\n        address _to,\n        uint hash,\n        uint quantity\n    ) public  returns (uint)\n     \n    {\n        \n        // require(_from == msg.sender);\n\n        for (uint i=0 ; i< chain_products_track[_from] ; i++)\n        {\n            if(all_products_track[_from][i].hash == hash)\n            {\n                // If total number of product is less than number of products to be transferred\n                if (all_products_track[_from][i].quantity < quantity)\n                {\n                    return 696969;\n                }\n                else\n                {\n                    // Will tell if the _to address already have this product\n                    \n                    found = 0;\n\n                    // Update the quantity of product\n                    all_products_track[_from][i].quantity = all_products_track[_from][i].quantity - quantity;\n\n                    for (uint j=0 ; j< chain_products_track[_to] ; j++)\n                    {\n                        if (all_products_track[_to][j].hash == hash)\n                        {\n                            return j;\n                            // all_products_track[_to][j].quantity = all_products_track[_to][j].quantity + quantity;\n                            // all_products_track[_to][j].current_owner = _to;\n                            // all_products_track[_to][j].no_of_transfers ++;\n                        }\n                    }\n                    if (found == 0)\n                    {\n                        return i;\n                        // return \"not found\";\n                        // address x = _to ;\n\n                        //product memory Product1 = product(hash, all_products_track[_from][i]._manufacturer ,all_products_track[_from][i].owners,all_products_track[_from][i].current_owner, all_products_track[_from][i]._desc , all_products_track[_from][i].quantity ,all_products_track[_from][i].price , all_products_track[_from][i].no_of_transfers); \n                        //all_products_track[_from].push(Product1);\n                        // // all_products_track[_to][0] = Product1 ;\n                        // //manufacturerCreatesProduct(_to, \"chal jaa bsdk\", quantity, 10, hash);\n                        // //all_products_track[_to].push(product(hash, all_products_track[_from][i]._manufacturer ,new address[](10),all_products_track[_from][i].current_owner, all_products_track[_from][i]._desc , all_products_track[_from][i].quantity ,all_products_track[_from][i].price , all_products_track[_from][i].no_of_transfers));\n                        // // all_products_track[_to].push(all_products_track[_from][i]);\n                        //  //all_products_track[_to].push(product(all_products_track[_from][i].hash, all_products_track[_from][i]._manufacturer ,all_products_track[_from][i].owners,all_products_track[_from][i].current_owner, all_products_track[_from][i]._desc , all_products_track[_from][i].quantity ,all_products_track[_from][i].price , all_products_track[_from][i].no_of_transfers));\n                        //  //all_products_track[_to].push(product(hash, all_products_track[_from][i]._manufacturer ,all_products_track[_from][i].owners,_from, \"hola\" , 4 ,0 , 0));\n                        // // chain_products_track[_to]++;\n                        // // all_products_track[_to][chain_products_track[_to]-1].quantity =  quantity;\n                        // // all_products_track[_to][chain_products_track[_to]-1].owners.push(_to);\n                        // // all_products_track[_to][chain_products_track[_to]-1].current_owner = _to;\n                        // // all_products_track[_to][chain_products_track[_to]-1].no_of_transfers ++;                        \n                    }\n                }\n            }\n        }\n        return 696970;\n\n    }\n}\n",
  "sourcePath": "/Users/vidhipareek/Downloads/ethereum-supply-chain-dapp-main/contracts/Manufacturer.sol",
  "compiler": {
    "name": "solc",
    "version": "0.6.6+commit.6c089d02.Emscripten.clang"
  },
  "schemaVersion": "3.4.7",
  "updatedAt": "2022-04-15T08:32:08.673Z",
  "networkType": "ethereum",
  "devdoc": {
    "methods": {}
  },
  "userdoc": {
    "methods": {}
  }
}