{
  "contractName": "ProductManager",
  "abi": [
    {
      "anonymous": false,
      "inputs": [
        {
          "indexed": true,
          "internalType": "address",
          "name": "previousOwner",
          "type": "address"
        },
        {
          "indexed": true,
          "internalType": "address",
          "name": "newOwner",
          "type": "address"
        }
      ],
      "name": "OwnershipTransferred",
      "type": "event"
    },
    {
      "anonymous": false,
      "inputs": [
        {
          "indexed": false,
          "internalType": "uint256",
          "name": "_productIndex",
          "type": "uint256"
        },
        {
          "indexed": false,
          "internalType": "uint256",
          "name": "_step",
          "type": "uint256"
        },
        {
          "indexed": false,
          "internalType": "address",
          "name": "productPaymentAddress",
          "type": "address"
        }
      ],
      "name": "ProductStateChanged",
      "type": "event"
    },
    {
      "inputs": [],
      "name": "index",
      "outputs": [
        {
          "internalType": "uint256",
          "name": "",
          "type": "uint256"
        }
      ],
      "stateMutability": "view",
      "type": "function",
      "constant": true
    },
    {
      "inputs": [],
      "name": "number",
      "outputs": [
        {
          "internalType": "uint256",
          "name": "",
          "type": "uint256"
        }
      ],
      "stateMutability": "view",
      "type": "function",
      "constant": true
    },
    {
      "inputs": [],
      "name": "owner",
      "outputs": [
        {
          "internalType": "address",
          "name": "",
          "type": "address"
        }
      ],
      "stateMutability": "view",
      "type": "function",
      "constant": true
    },
    {
      "inputs": [
        {
          "internalType": "uint256",
          "name": "",
          "type": "uint256"
        }
      ],
      "name": "products",
      "outputs": [
        {
          "internalType": "string",
          "name": "productUid",
          "type": "string"
        },
        {
          "internalType": "uint256",
          "name": "price",
          "type": "uint256"
        },
        {
          "internalType": "enum ProductManager.ProductState",
          "name": "state",
          "type": "uint8"
        },
        {
          "internalType": "contract ProductPaymentHanler",
          "name": "paymentHandler",
          "type": "address"
        }
      ],
      "stateMutability": "view",
      "type": "function",
      "constant": true
    },
    {
      "inputs": [
        {
          "internalType": "address",
          "name": "newOwner",
          "type": "address"
        }
      ],
      "name": "transferOwnership",
      "outputs": [],
      "stateMutability": "nonpayable",
      "type": "function"
    },
    {
      "inputs": [
        {
          "internalType": "string",
          "name": "_id",
          "type": "string"
        },
        {
          "internalType": "uint256",
          "name": "_price",
          "type": "uint256"
        }
      ],
      "name": "createProduct",
      "outputs": [],
      "stateMutability": "nonpayable",
      "type": "function"
    },
    {
      "inputs": [
        {
          "internalType": "uint256",
          "name": "_productIndex",
          "type": "uint256"
        }
      ],
      "name": "triggerPayment",
      "outputs": [],
      "stateMutability": "payable",
      "type": "function",
      "payable": true
    },
    {
      "inputs": [
        {
          "internalType": "uint256",
          "name": "_productIndex",
          "type": "uint256"
        }
      ],
      "name": "triggerDelivery",
      "outputs": [],
      "stateMutability": "nonpayable",
      "type": "function"
    },
    {
      "inputs": [],
      "name": "withdraw",
      "outputs": [],
      "stateMutability": "nonpayable",
      "type": "function"
    },
    {
      "inputs": [],
      "name": "renounceOwnership",
      "outputs": [],
      "stateMutability": "nonpayable",
      "type": "function"
    }
  ],
  "bytecode": "0x6080604052600a6001556064600355600061001e6100c160201b60201c565b9050806000806101000a81548173ffffffffffffffffffffffffffffffffffffffff021916908373ffffffffffffffffffffffffffffffffffffffff1602179055508073ffffffffffffffffffffffffffffffffffffffff16600073ffffffffffffffffffffffffffffffffffffffff167f8be0079c531659141344cd1fd0a4f28419497f9722a3daafe3b4186f6b6457e060405160405180910390a3506100c9565b600033905090565b61183d806100d86000396000f3fe6080604052600436106100915760003560e01c80638381f58a116100595780638381f58a146102205780638da5cb5b1461024b578063cd31831e146102a2578063e9300c6c146102dd578063f2fde38b146103af57610091565b80632986c0e5146100965780633ccfd60b146100c1578063715018a6146100d85780637acc0b20146100ef578063800fb83f146101f2575b600080fd5b3480156100a257600080fd5b506100ab610400565b6040518082815260200191505060405180910390f35b3480156100cd57600080fd5b506100d6610406565b005b3480156100e457600080fd5b506100ed610518565b005b3480156100fb57600080fd5b506101286004803603602081101561011257600080fd5b8101908080359060200190929190505050610632565b604051808060200185815260200184600281111561014257fe5b60ff1681526020018373ffffffffffffffffffffffffffffffffffffffff1673ffffffffffffffffffffffffffffffffffffffff168152602001828103825286818151815260200191508051906020019080838360005b838110156101b4578082015181840152602081019050610199565b50505050905090810190601f1680156101e15780820380516001836020036101000a031916815260200191505b509550505050505060405180910390f35b61021e6004803603602081101561020857600080fd5b8101908080359060200190929190505050610727565b005b34801561022c57600080fd5b5061023561093a565b6040518082815260200191505060405180910390f35b34801561025757600080fd5b50610260610940565b604051808273ffffffffffffffffffffffffffffffffffffffff1673ffffffffffffffffffffffffffffffffffffffff16815260200191505060405180910390f35b3480156102ae57600080fd5b506102db600480360360208110156102c557600080fd5b8101908080359060200190929190505050610969565b005b3480156102e957600080fd5b506103ad6004803603604081101561030057600080fd5b810190808035906020019064010000000081111561031d57600080fd5b82018360208201111561032f57600080fd5b8035906020019184600183028401116401000000008311171561035157600080fd5b91908080601f016020809104026020016040519081016040528093929190818152602001838380828437600081840152601f19601f82011690508083019250505050505050919291929080359060200190929190505050610bd5565b005b3480156103bb57600080fd5b506103fe600480360360208110156103d257600080fd5b81019080803573ffffffffffffffffffffffffffffffffffffffff169060200190929190505050610ee3565b005b60035481565b61040e6110f0565b73ffffffffffffffffffffffffffffffffffffffff166000809054906101000a900473ffffffffffffffffffffffffffffffffffffffff1673ffffffffffffffffffffffffffffffffffffffff16146104cf576040517f08c379a00000000000000000000000000000000000000000000000000000000081526004018080602001828103825260208152602001807f4f776e61626c653a2063616c6c6572206973206e6f7420746865206f776e657281525060200191505060405180910390fd5b3373ffffffffffffffffffffffffffffffffffffffff166108fc479081150290604051600060405180830381858888f19350505050158015610515573d6000803e3d6000fd5b50565b6105206110f0565b73ffffffffffffffffffffffffffffffffffffffff166000809054906101000a900473ffffffffffffffffffffffffffffffffffffffff1673ffffffffffffffffffffffffffffffffffffffff16146105e1576040517f08c379a00000000000000000000000000000000000000000000000000000000081526004018080602001828103825260208152602001807f4f776e61626c653a2063616c6c6572206973206e6f7420746865206f776e657281525060200191505060405180910390fd5b6040517f08c379a00000000000000000000000000000000000000000000000000000000081526004018080602001828103825260258152602001806117e36025913960400191505060405180910390fd5b6002602052806000526040600020600091509050806000018054600181600116156101000203166002900480601f0160208091040260200160405190810160405280929190818152602001828054600181600116156101000203166002900480156106de5780601f106106b3576101008083540402835291602001916106de565b820191906000526020600020905b8154815290600101906020018083116106c157829003601f168201915b5050505050908060010154908060020160009054906101000a900460ff16908060020160019054906101000a900473ffffffffffffffffffffffffffffffffffffffff16905084565b3460026000838152602001908152602001600020600101541115610796576040517f08c379a000000000000000000000000000000000000000000000000000000000815260040180806020018281038252602d8152602001806117b6602d913960400191505060405180910390fd5b600060028111156107a357fe5b6002600083815260200190815260200160002060020160009054906101000a900460ff1660028111156107d257fe5b14610828576040517f08c379a000000000000000000000000000000000000000000000000000000000815260040180806020018281038252604d815260200180611769604d913960600191505060405180910390fd5b60016002600083815260200190815260200160002060020160006101000a81548160ff0219169083600281111561085b57fe5b02179055507fa04c3ac61bf2138ed180c33d5711935e6e6e9100b7312b3bbe5ee8ab7536a669816002600084815260200190815260200160002060020160009054906101000a900460ff1660028111156108b157fe5b6002600085815260200190815260200160002060020160019054906101000a900473ffffffffffffffffffffffffffffffffffffffff16604051808481526020018381526020018273ffffffffffffffffffffffffffffffffffffffff1673ffffffffffffffffffffffffffffffffffffffff168152602001935050505060405180910390a150565b60015481565b60008060009054906101000a900473ffffffffffffffffffffffffffffffffffffffff16905090565b6109716110f0565b73ffffffffffffffffffffffffffffffffffffffff166000809054906101000a900473ffffffffffffffffffffffffffffffffffffffff1673ffffffffffffffffffffffffffffffffffffffff1614610a32576040517f08c379a00000000000000000000000000000000000000000000000000000000081526004018080602001828103825260208152602001807f4f776e61626c653a2063616c6c6572206973206e6f7420746865206f776e657281525060200191505060405180910390fd5b60016002811115610a3f57fe5b6002600083815260200190815260200160002060020160009054906101000a900460ff166002811115610a6e57fe5b14610ac4576040517f08c379a00000000000000000000000000000000000000000000000000000000081526004018080602001828103825260338152602001806117106033913960400191505060405180910390fd5b600280600083815260200190815260200160002060020160006101000a81548160ff02191690836002811115610af657fe5b02179055507fa04c3ac61bf2138ed180c33d5711935e6e6e9100b7312b3bbe5ee8ab7536a669816002600084815260200190815260200160002060020160009054906101000a900460ff166002811115610b4c57fe5b6002600085815260200190815260200160002060020160019054906101000a900473ffffffffffffffffffffffffffffffffffffffff16604051808481526020018381526020018273ffffffffffffffffffffffffffffffffffffffff1673ffffffffffffffffffffffffffffffffffffffff168152602001935050505060405180910390a150565b610bdd6110f0565b73ffffffffffffffffffffffffffffffffffffffff166000809054906101000a900473ffffffffffffffffffffffffffffffffffffffff1673ffffffffffffffffffffffffffffffffffffffff1614610c9e576040517f08c379a00000000000000000000000000000000000000000000000000000000081526004018080602001828103825260208152602001807f4f776e61626c653a2063616c6c6572206973206e6f7420746865206f776e657281525060200191505060405180910390fd5b60003060035483604051610cb1906110f8565b808473ffffffffffffffffffffffffffffffffffffffff1673ffffffffffffffffffffffffffffffffffffffff1681526020018381526020018281526020019350505050604051809103906000f080158015610d11573d6000803e3d6000fd5b5090508060026000600354815260200190815260200160002060020160016101000a81548173ffffffffffffffffffffffffffffffffffffffff021916908373ffffffffffffffffffffffffffffffffffffffff160217905550826002600060035481526020019081526020016000206000019080519060200190610d97929190611105565b508160026000600354815260200190815260200160002060010181905550600060026000600354815260200190815260200160002060020160006101000a81548160ff02191690836002811115610dea57fe5b02179055507fa04c3ac61bf2138ed180c33d5711935e6e6e9100b7312b3bbe5ee8ab7536a66960035460026000600354815260200190815260200160002060020160009054906101000a900460ff166002811115610e4457fe5b60026000600354815260200190815260200160002060020160019054906101000a900473ffffffffffffffffffffffffffffffffffffffff16604051808481526020018381526020018273ffffffffffffffffffffffffffffffffffffffff1673ffffffffffffffffffffffffffffffffffffffff168152602001935050505060405180910390a1600360008154809291906001019190505550505050565b610eeb6110f0565b73ffffffffffffffffffffffffffffffffffffffff166000809054906101000a900473ffffffffffffffffffffffffffffffffffffffff1673ffffffffffffffffffffffffffffffffffffffff1614610fac576040517f08c379a00000000000000000000000000000000000000000000000000000000081526004018080602001828103825260208152602001807f4f776e61626c653a2063616c6c6572206973206e6f7420746865206f776e657281525060200191505060405180910390fd5b600073ffffffffffffffffffffffffffffffffffffffff168173ffffffffffffffffffffffffffffffffffffffff161415611032576040517f08c379a00000000000000000000000000000000000000000000000000000000081526004018080602001828103825260268152602001806117436026913960400191505060405180910390fd5b8073ffffffffffffffffffffffffffffffffffffffff166000809054906101000a900473ffffffffffffffffffffffffffffffffffffffff1673ffffffffffffffffffffffffffffffffffffffff167f8be0079c531659141344cd1fd0a4f28419497f9722a3daafe3b4186f6b6457e060405160405180910390a3806000806101000a81548173ffffffffffffffffffffffffffffffffffffffff021916908373ffffffffffffffffffffffffffffffffffffffff16021790555050565b600033905090565b610565806111ab83390190565b828054600181600116156101000203166002900490600052602060002090601f016020900481019282601f1061114657805160ff1916838001178555611174565b82800160010185558215611174579182015b82811115611173578251825591602001919060010190611158565b5b5090506111819190611185565b5090565b6111a791905b808211156111a357600081600090555060010161118b565b5090565b9056fe608060405234801561001057600080fd5b506040516105653803806105658339818101604052606081101561003357600080fd5b8101908080519060200190929190805190602001909291908051906020019092919050505082600260016101000a81548173ffffffffffffffffffffffffffffffffffffffff021916908373ffffffffffffffffffffffffffffffffffffffff16021790555081600181905550806000819055505050506104ac806100b96000396000f3fe6080604052600436106100435760003560e01c8063230b9da3146103255780632986c0e51461037c578063a035b1fe146103a7578063c25fffa5146103d257610320565b3661032057600260009054906101000a900460ff16156100cb576040517f08c379a00000000000000000000000000000000000000000000000000000000081526004018080602001828103825260188152602001807f50726f6475637420697320616c726561647920706169642e000000000000000081525060200191505060405180910390fd5b6000543414610125576040517f08c379a00000000000000000000000000000000000000000000000000000000081526004018080602001828103825260308152602001806104476030913960400191505060405180910390fd5b6000600260019054906101000a900473ffffffffffffffffffffffffffffffffffffffff1673ffffffffffffffffffffffffffffffffffffffff1634600154604051602401808281526020019150506040516020818303038152906040527f800fb83f000000000000000000000000000000000000000000000000000000007bffffffffffffffffffffffffffffffffffffffffffffffffffffffff19166020820180517bffffffffffffffffffffffffffffffffffffffffffffffffffffffff83818316178352505050506040518082805190602001908083835b602083106102245780518252602082019150602081019050602083039250610201565b6001836020036101000a03801982511681845116808217855250505050505090500191505060006040518083038185875af1925050503d8060008114610286576040519150601f19603f3d011682016040523d82523d6000602084013e61028b565b606091505b5050905080610302576040517f08c379a000000000000000000000000000000000000000000000000000000000815260040180806020018281038252601d8152602001807f5472616e73616374696f6e2077616e2774207375636365737366756c2e00000081525060200191505060405180910390fd5b6001600260006101000a81548160ff02191690831515021790555050005b600080fd5b34801561033157600080fd5b5061033a610401565b604051808273ffffffffffffffffffffffffffffffffffffffff1673ffffffffffffffffffffffffffffffffffffffff16815260200191505060405180910390f35b34801561038857600080fd5b50610391610427565b6040518082815260200191505060405180910390f35b3480156103b357600080fd5b506103bc61042d565b6040518082815260200191505060405180910390f35b3480156103de57600080fd5b506103e7610433565b604051808215151515815260200191505060405180910390f35b600260019054906101000a900473ffffffffffffffffffffffffffffffffffffffff1681565b60015481565b60005481565b600260009054906101000a900460ff168156fe596f75206d757374207061792074686520657861637420616d6f757420746861742070726f6475637420636f7374732ea2646970667358221220be648429ac8226b7d00afc012f35ffd5c95798a1f112a5923f5d1a4cb2b60a3664736f6c6343000606003350726f64756374206d75737420626520706169642066697273742c20746f2062652073656e7420666f722064656c69766572794f776e61626c653a206e6577206f776e657220697320746865207a65726f206164647265737343616e2774207075726368617365207468652070726f647563742c2070726f6475637420697320616c726561647920707572636861736564206f722073656e7420666f722064656c697665727943616e2774207075726368617365207468652070726f647563742c206e6f7420656e6f756768206d6f6e65792e596f75277265206e6f742061626c6520746f2072656e6f756e6365206f776e657273686970a2646970667358221220a3a1d6b78ed67b2a03f1fb30f1be34998749d412e30473f37d6d1d2f6d43b9ea64736f6c63430006060033",
  "immutableReferences": {},
  "source": "// SPDX-License-Identifier: MIT\npragma solidity ^0.6.0.;\n\nimport \"../client/node_modules/@openzeppelin/contracts/access/Ownable.sol\";\nimport \"./ProductPaymentHanler.sol\";\n\n/**\n * @dev Contract for managing creation of new products and handling of the events.   \n */\ncontract ProductManager is Ownable{\n    \n    /// @dev Product states\n    enum ProductState{Created, Paid, Delivered}\n    uint public number = 10;\n    /// @dev Info we store for every product\n    struct Product{\n        string productUid;\n        uint price;\n        ProductState state;\n        ProductPaymentHanler paymentHandler;\n    }\n    \n    /// @dev Keeping track of products and their states.\n    mapping(uint => Product) public products;\n    uint public index = 100;\n    \n    /// @dev For emiting events whenever product state has been changed.\n    event ProductStateChanged(uint _productIndex, uint _step, address productPaymentAddress);\n    \n    /**\n     * @dev Creating new product and saving it in storage.\n     */\n    function createProduct(string memory _id, uint _price) public onlyOwner {\n        ProductPaymentHanler paymentHandler = new ProductPaymentHanler(this, index, _price);\n        products[index].paymentHandler = paymentHandler;\n        products[index].productUid = _id;\n        products[index].price = _price;\n        products[index].state = ProductState.Created;\n        \n        emit ProductStateChanged(index, uint(products[index].state), address(products[index].paymentHandler));\n        index++;\n    }\n    \n    /**\n     * @dev Purchasing the product and emitting an event about it.\n     */\n    function triggerPayment(uint _productIndex) public payable{\n        require(products[_productIndex].price <= msg.value, \"Can't purchase the product, not enough money.\");\n        require(products[_productIndex].state == ProductState.Created, \"Can't purchase the product, product is already purchased or sent for delivery\");\n        \n        products[_productIndex].state = ProductState.Paid;\n        emit ProductStateChanged(_productIndex, uint(products[_productIndex].state), address(products[_productIndex].paymentHandler));\n    }\n    \n    /**\n     * @dev Shipping the product and emitting an event about it.\n     */\n    function triggerDelivery(uint _productIndex) public onlyOwner {\n        require(products[_productIndex].state == ProductState.Paid, \"Product must be paid first, to be sent for delivery\");\n    \n        products[_productIndex].state = ProductState.Delivered;\n        emit ProductStateChanged(_productIndex, uint(products[_productIndex].state), address(products[_productIndex].paymentHandler));\n    }\n    \n    /**\n     * @dev Withdrawing money (deposits for products' purchases) from this contract.\n     */\n    function withdraw() public onlyOwner{\n        msg.sender.transfer(address(this).balance);\n    }\n    \n    /**\n     * @dev Overriding renounceOwnership function from Wnable contract.\n     */\n    function renounceOwnership() public override onlyOwner {\n        revert(\"You're not able to renounce ownership\");\n    }\n}",
  "sourcePath": "/Users/vidhipareek/Downloads/ethereum-supply-chain-dapp-main/contracts/ProductManager.sol",
  "compiler": {
    "name": "solc",
    "version": "0.6.6+commit.6c089d02.Emscripten.clang"
  },
  "schemaVersion": "3.4.7",
  "updatedAt": "2022-04-15T22:05:04.955Z",
  "networkType": "ethereum",
  "devdoc": {
    "details": "Contract for managing creation of new products and handling of the events.   ",
    "methods": {
      "createProduct(string,uint256)": {
        "details": "Creating new product and saving it in storage."
      },
      "owner()": {
        "details": "Returns the address of the current owner."
      },
      "renounceOwnership()": {
        "details": "Overriding renounceOwnership function from Wnable contract."
      },
      "transferOwnership(address)": {
        "details": "Transfers ownership of the contract to a new account (`newOwner`). Can only be called by the current owner."
      },
      "triggerDelivery(uint256)": {
        "details": "Shipping the product and emitting an event about it."
      },
      "triggerPayment(uint256)": {
        "details": "Purchasing the product and emitting an event about it."
      },
      "withdraw()": {
        "details": "Withdrawing money (deposits for products' purchases) from this contract."
      }
    }
  },
  "userdoc": {
    "methods": {}
  }
}